:020000040800F2
:100000006004002001010008CB0E00080B0E000860
:10001000C90E00086D010008511100080000000021
:10002000000000000000000000000000CF0E0008EB
:100030006F01000800000000CD0E0008D10E00087E
:100040001B0100081B0100081B0100081B01000820
:100050001B0100081B0100081B0100081B01000810
:100060001B0100081B0100081B0100081B01000800
:100070001B0100081B0100081B0100081B010008F0
:100080001B0100081B0100081B0100081B010008E0
:100090001B0100081B0100081B0100081B010008D0
:1000A0001B0100081B0100081B0100081B010008C0
:1000B0001B0100081B0100081B0100081B010008B0
:1000C0001B0100081B0100081B0100081B010008A0
:1000D0001B010008451100081B0100081B01000856
:1000E0001B0100081B0100081B010008DFF80CD0F1
:1000F00000F02AF800480047911100086004002031
:100100000648804706480047FEE7FEE7FEE7FEE7B1
:10011000FEE7FEE7FEE7FEE7FEE7FEE7330F000837
:10012000ED000008D2B201E000F8012B491EFBD21D
:1001300070470022F6E710B513460A4604461946F2
:10014000FFF7F0FF204610BD064C074D06E0E068C3
:1001500040F0010394E8070098471034AC42F6D30E
:10016000FFF7C8FFCC110008EC110008FEE770474C
:1001700072B6FEE710B590F821100022022905D0D2
:100180000421816380F82020012010BD01680B68E4
:1001900023F00E030B6001680B6823F001030B6072
:1001A00090F84030C46B012101FA03F3636080F8DA
:1001B000211080F82020104610BD000010B590F8E6
:1001C00021100024022903D00421816301243DE091
:1001D00001680A6822F00E020A6001680A6822F0CB
:1001E00001020A601A4A0168914201D1012121E00D
:1001F000174A1432914201D110211BE0144A2832CF
:10020000914201D1891515E0114A3C32914201D148
:1002100089140FE00E4A5032914202D14FF48031DE
:1002200008E00B4A6432914202D14FF4801101E0A0
:100230004FF08071064A083A5160012180F8211080
:10024000002180F82010416B01B18847204610BD85
:10025000080002402DE9F84FDFF8B8910024A9F119
:10026000040B23460F2709F1040AABF1040EC9E081
:100270000125A5402A40AA427DD1674ED1F804C08D
:10028000ACEB0608B44532D014DCBCF1030F3AD015
:1002900009DCBCF1000F2AD0BCF1010F1CD0BCF16D
:1002A000020F31D11DE0BCF1110F17D0BCF1120FBC
:1002B0002AD119E0B8F5881F19D006DCB8F5803FBF
:1002C00015D0B8F5801F1FD111E0B8F5001F0ED072
:1002D000B8F5041F18D10AE0CB6815E0CB681B1DE8
:1002E00012E0CB6808330FE0CB680C330CE08B686E
:1002F0002BB1012B4FF0080303D0456104E0042328
:1003000002E0056100E00023FF2A01D8064601E073
:1003100000F104064FEA840501D9A5F12005D6F8BD
:10032000008007FA05FC28EA0C0803FA05F548EAFC
:100330000508C6F800804D68ED0062D5374DAE69FE
:1003400046F00106AE61AD6924F0030605F0010533
:100350000095334D06EB050CDCF80850A607360F68
:1003600007FA06F825EA0805DFF8B880404503D10A
:100370004FF0000817E044E0DFF8AC80404502D1C0
:100380004FF001080FE0DFF8A480404502D14FF0A4
:10039000020808E0DFF89880404502D14FF00308DA
:1003A00001E04FF0040808FA06F848EA0508CCF81E
:1003B00008804D68D9F80060ED024D4601D516431E
:1003C00000E096432E604D68DAF80060AD025546B5
:1003D00001D5164300E096432E604D68DBF80060BF
:1003E000AD035D4601D5164300E096432E604D688F
:1003F000DEF80060ED03754601D5164300E0964334
:100400002E60641C0D682A46E5407FF431AFBDE8DC
:10041000F88F000008040140000011100010024095
:100420000000014000080140000C014000100140A4
:10043000001401400AB1016170470904FBE70000A4
:10044000014880687047000004000020024881686D
:10045000027811448160704704000020074810B5FD
:10046000016841F010010160032000F067F80F20DF
:1004700000F006F800F024F8002010BD0020024033
:1004800070B50D4D04464FF47A712878B1FBF0F049
:100490000A490968B1FBF0F000F0CEFA48B9102C17
:1004A00007D200222146501E00F028F800206C6080
:1004B00070BD012070BD000004000020100000206D
:1004C0000C4808B5816941F001018161816901F041
:1004D00001010091C16941F08051C161C06900F022
:1004E000805000900448416821F0E06141F00071C3
:1004F000416008BD0010024000000140F0B40E4B06
:100500001B680C46C3F30223C3F10705042D00D971
:100510000425191D072901D2002300E0DB1E012656
:1005200006FA05F1491E214099409E40761E16406C
:100530003143F0BC00F00DBE0CED00E0064900F0C8
:10054000070208684FF6FF03184040EA0220034AFA
:1005500010430860704700000CED00E00000FA0551
:100560002DE9F0470F46050061D0434E306800F09A
:100570000700B84209D2306820F0070038433060E5
:10058000306800F00700B84251D128683B4C810721
:1005900012D5400703D5606840F4E06060602878B9
:1005A000000703D5606840F4605060606068A96827
:1005B00020F0F000084360602878C00728D0686801
:1005C000012810D02168022810D0890700292EDACE
:1005D000616821F0030101436160FFF731FF80464C
:1005E00041F288390DE021688903EFE78901EDE7E1
:1005F000FFF726FFA0EB0801494502D90320BDE81B
:10060000F0876068696800F00C00B0EB810FEFD1F3
:10061000306800F00700B8420BD9306820F00700BE
:1006200038433060306800F00700B84201D0012044
:10063000E5E72878400705D56068E96820F4E060C0
:10064000084360602878000706D56068296920F4AF
:10065000605040EAC100606000F038F86168084A04
:10066000C1F30311515CC8400649086006480068A0
:10067000FFF706FF0020C2E7002002400010024002
:10068000B4110008100000200800002004480549AB
:1006900000684968044AC1F30221515CC8407047B0
:1006A0001000002000100240C41100080448054951
:1006B00000684968044AC1F3C221515CC8407047D0
:1006C0001000002000100240C41100080E4A5168BA
:1006D0000E4801F00C03042B11D0082B0FD10C484D
:1006E000C1F38343C903C05C0AD55168084AC1F30A
:1006F0004041921E515C054A5043B0FBF1F07047F7
:1007000004494843704700000010024000127A007C
:10071000A411000800093D002DE9F84F040070D035
:100720002078C04DC00749D06868C0F38100012817
:1007300007D06868C0F38100022809D16868C00347
:1007400006D52868800339D560680028E7D035E0F1
:100750006068B0F5803F0BD010B1B0F5A02F11D07C
:10076000286820F480302860286820F4802002E087
:10077000286840F480302860606890B1FFF760FE20
:1007800006460AE0286840F480202860F0E700BFB1
:10079000FFF756FE801B642873D828688003F7D5BE
:1007A0000CE0FFF74DFE064605E000BFFFF748FEF0
:1007B000801B6428F0D828688003F7D420789A4EEC
:1007C00080074FF001094FF0000839D5686810F034
:1007D0000C0F07D06868C0F38100022809D168684F
:1007E000C00306D42868800714D52069012808D1E1
:1007F00010E02069B0B1C6F80090FFF721FE07466F
:1008000005E00AE1FFF71CFEC01B0228C4D82868D7
:100810008007F7D52868616920F0F80040EAC10038
:1008200028600DE0C6F80080FFF70AFE074604E0E6
:10083000FFF706FEC01B022823D828688007F7D4DC
:10084000207800072CD57948A169D9B1C0F800906B
:10085000FFF7F6FD074604E0FFF7F2FDC01B022894
:100860000FD8686A8007F7D571484FF4FA510068CD
:10087000B0FBF1F0009000BF0098411E0091FAD249
:100880000EE080E0C0F80080FFF7DAFD074604E0E4
:10089000FFF7D6FDC01B022875D8686A8007F7D419
:1008A0002078400760D5E8690027C00008D4E869CF
:1008B00040F08050E861E869012700F08050009026
:1008C0005C480168C90513D40168834641F480710E
:1008D0000160FFF7B5FD824606E000BFFFF7B0FDFF
:1008E000A0EB0A0064284ED8DBF80000C005F5D55F
:1008F000E06801280AD008B1052813D0286A20F042
:1009000001002862286A20F0040002E0286A40F012
:1009100001002862E06841F2883B98B1FFF790FD42
:1009200082460BE0286A40F004002862EEE700BF30
:10093000FFF786FDA0EB0A0159455AD8286A8007BF
:10094000F6D50CE0FFF77CFD824605E0FFF778FD69
:10095000A0EB0A0159454CD8286A8007F6D41FB18C
:10096000E86920F08050E861E06988B36968C1F304
:100970008101022944D00228C6F8608004D0FFF724
:100980005FFD044638E034E0FFF75AFD074604E017
:10099000FFF756FDC01B02282BD828688001F7D42A
:1009A000206AB0F5803F05D16868A16820F4003066
:1009B00008436860D4E908010843696821F47411A8
:1009C00008436860C6F86090FFF73AFD044606E009
:1009D00025E000BFFFF734FD001B022809D8286876
:1009E0008001F7D51BE000BFFFF72AFD001B02289E
:1009F00002D90320BDE8F88F28688001F4D40EE006
:100A00000128F7D06868226A00F48031914204D14D
:100A1000616A00F47010884201D00120EAE70020EA
:100A2000E8E7000000100240000042428004424219
:100A3000100000200070004010B5401EB0F1807F13
:100A400001D3012010BD4FF0E02460610F21601739
:100A500000F07FFB0020A06107202061002010BD76
:100A600070477047F8B5016804460868CA684B6962
:100A700010F00F0F4FF0000559D003F0010602F4FB
:100A80009077374365D0C10705D0D10503D5616C98
:100A900041F001016164410705D5D90703D0616CBC
:100AA00041F002016164810705D5D90703D0616C6B
:100AB00041F004016164010707D502F020013143D0
:100AC00003D0616C41F008016164616C00293AD087
:100AD000800604D5900602D5204600F05AFA206818
:100AE0004069616CC0F38010090700D460B32046F0
:100AF00000F028FA20684069400621D520681430AB
:100B000050E8001F21F0400140E80012002AF5D112
:100B1000E06BA8B16D494163E06BFFF74FFB002824
:100B200011D0E06B416B01B0BDE8F040084783068F
:100B30000FD593060DD52046BDE8F84000F029BA40
:100B40002046FFF78EFFF8BD2046FFF78AFF656459
:100B5000F8BD266B2023012E7CD1C6067AD5D60699
:100B600078D508684868009048694FF0020640064A
:100B700040D5E16B086840680004000CE8D0A28D05
:100B80008242E5D9E085886920282DD020680C3084
:100B900050E8001F21F4807140E80012002AF5D1CE
:100BA0002068143050E8001F21F0010140E80012D5
:100BB000002AF5D12068143050E8001F21F04001D0
:100BC00040E80012002AF5D184F8423025632068FD
:100BD0000C3050E8001F21F0100140E80012002AFC
:100BE000F5D1E06BFFF7C6FA6663A08DE18D401A80
:100BF00081B22AE0A08DE18D401A81B2E08D0028FB
:100C0000A6D00029A4D022680C3252E8000F20F4AC
:100C1000907042E80007002FF5D12068143050E8AA
:100C2000002F22F0010240E80027002FF5D184F8C0
:100C30004230256320680C3050E8002F22F010026B
:100C400040E80023002BF5D166632046FFF708FF3C
:100C5000F8BDFFE705062BD5150629D594F8410008
:100C60002128F5D1A068B0F5805F01D12069B0B12D
:100C7000206A411C2162216800784860E08C401E97
:100C80000004000CE084E3D12068C16821F08001F9
:100C9000C1602068C16841F04001C160D8E7206AA6
:100CA0000088C0F308004860206A801C2062E5E7E5
:100CB0004006CDD55006CBD5CA68204622F040026A
:100CC000CA6084F8413000F09FF8C1E7350F000892
:100CD00070B5040004D094F84100002510B106E07E
:100CE000012070BD84F84050204600F023F82420F5
:100CF00084F841002068C16821F40051C160204699
:100D000000F0A8F92068016921F490410161206890
:100D1000416921F02A0141612068C16841F4005114
:100D2000C1606564202084F8410084F84200656356
:100D3000002070BD30B585B0002400940194029469
:100D4000039400681449884224D11448816941F40D
:100D500080418161816901F480410491816941F0A0
:100D60000401816180690E4D00F0040004904FF48D
:100D700000700090022001900320039069462846ED
:100D8000FFF768FA2815CDE9000469462846029461
:100D9000FFF760FA05B030BD003801400010024096
:100DA0000008014090F84230202B01D0022070470B
:100DB00021B11AB10023036300F0A8B901207047E4
:100DC00010B5044600680D49884215D10C484914F5
:100DD0000C4B0078312802D0302802D005E00122E7
:100DE00000E000221846FFF725FB2046BDE8104032
:100DF00001220349FFF7D6BF10BD000000380140B3
:100E000000000020001001407047FEE770B586B07A
:100E100000241C480094019402940394816941F0D9
:100E200010018161816901F010010491816941F033
:100E300020018161816901F020010491816941F003
:100E4000040181618069104E00F004004FF40055E8
:100E50000490002229463046FFF7ECFA0120009565
:100E6000CDE901040220039069463046FFF7F2F90C
:100E70001020CDE90004694604480294FFF7EAF91E
:100E800006B070BD00100240001001400008014093
:100E90000C4810B50A4901604FF416514160002119
:100EA00081600C22C160C0E904128161C161FFF759
:100EB0000FFF002803D0BDE81040FFF759B910BD5F
:100EC0000038014014000020FEE7FEE7704770473D
:100ED000FFF7BCBA30B58FB028216846FFF729F973
:100EE00014210AA8FFF725F901210804CDE9001013
:100EF0000024029402250491CDE907504FF4E0103C
:100F000009906846FFF708FC08B172B6FEE70F20AB
:100F1000CDE90A054FF48060CDE90C4002210AA812
:100F20000E94FFF71DFB002801D072B6FEE70FB04C
:100F300030BD704710B5406A0021C185C184FFF7FC
:100F400090FD10BD01680C3151E8002F22F4907221
:100F500041E80023002BF5D10168143151E8002F3E
:100F600022F0010241E80023002BF5D1016B012999
:100F700009D101680C3151E8002F22F0100241E83C
:100F80000023002BF5D1202180F8421000210163BD
:100F9000704708B590F84210222901D0022008BD00
:100FA00082684FF480539A4201D1016921B1816A6C
:100FB0009A421BD04AB10AE00268816A5268C2F3C1
:100FC00008020A80816A891C08E0026972B102681D
:100FD000526802F07F020A70816A491C8162C18DE9
:100FE000491E0904090CC18503D01BE00268526840
:100FF000F1E70168CA6822F02002CA600168CA6885
:1010000022F48072CA6001684A6922F001024A61D2
:10101000202180F8421000214163026B012A03D095
:10102000FFF7CEFE002008BD016301680C3151E8D6
:10103000002F22F0100241E80023002BF5D10168B7
:101040000A68D20602D50A6849680091818DFFF7C7
:1010500007FDE7E770B5044600680169E26821F41E
:101060004051114301612169A06808436169084347
:101070002168CA6841F20C639A430243CA6020683F
:101080004169A26921F44071114341611E49206800
:10109000884202D1FFF70AFB01E0FFF7F7FA00EB05
:1010A000C00101EB0012606864218000B2FBF0F324
:1010B000B3FBF1F36FF018067343B2FBF0F5B2FB2C
:1010C000F0F605EB8305322303EB0515B5FBF1F5CF
:1010D000B6FBF1F605F0F00505EB0615B2FBF0F6F0
:1010E000B2FBF0F0B0FBF1F06FF01802504306EBEA
:1010F000800003EB0010B0FBF1F0216800F00F005E
:101100002844886070BD00000038014081628285FB
:10111000C28500214164222180F84210016921B179
:101120000168CA6842F48072CA6001684A6942F084
:1011300001024A610068C16841F02001C1600020DD
:10114000704700000148FFF78DBC0000140000202C
:10115000FEE70907090E002804DB00F1E02080F813
:101160000014704700F00F0000F1E02080F8141D1B
:10117000704702E008C8121F08C1002AFAD1704760
:101180007047002001E001C1121F002AFBD1704707
:10119000FFF764F9FFF79EFEFFF738FEFFF778FED2
:1011A000FEE7010202030405060708090A0B0C0DFD
:1011B0000E0F1010000000000000000001020304E8
:1011C000060708090000000001020304EC110008F2
:1011D0000000002014000000721100080012000836
:1011E000140000204C0400008211000800000000E0
:1011F00001000000100000000000000000127A0052
:04000005080000ED02
:00000001FF
